:020000040800F2
:1000000000500020710700085D0400085F0400082C
:100010006104000863040008650400080000000093
:10002000000000000000000000000000670400085D
:1000300069040008000000006B0400086D0400085B
:10004000B9070008B9070008B9070008B907000890
:10005000B9070008B9070008B907000875040008C7
:10006000B9070008B9070008B907000881040008AB
:10007000B9070008B9070008B9070008B907000860
:10008000B9070008B9070008B9070008B907000850
:10009000B9070008B9070008B9070008B907000840
:1000A000B907000891040008A1040008B907000876
:1000B000B9070008B9070008B9070008B907000820
:1000C000B9070008B9070008B9070008B907000810
:1000D000B9070008B1040008B9070008B90700080B
:1000E000B9070008B9070008B907000800000000B8
:1000F0000000000000000000000000000000000000
:0C01000000000000000000005FF808F1A3
:10010C0010B5054C237833B9044B13B10448AFF345
:10011C0000800123237010BD3C040020000000006F
:10012C00C424000808B5034B1BB103490348AFF3C3
:10013C00008008BD0000000040040020C42400081A
:10014C0000B585B000230193029303931148124A22
:10015C0002608360037303754FF46022C2614360D5
:10016C000123036100F050FC68B9002301930123C3
:10017C0002930723039301A9064800F077FB28B9E3
:10018C0005B05DF804FB00F0BEF8EEE700F0BBF83C
:10019C00F6E700BF580400200024014010B586B0DB
:1001AC000023029303930493059302681E4B9A4217
:1001BC0001D006B010BD044603F56C439A6942F4B5
:1001CC0000729A619A6902F400720092009A9A691C
:1001DC0042F004029A619B6903F004030193019BB2
:1001EC00012302930323039302A9104800F042FE5B
:1001FC000F48104B03600023436083608022C26071
:10020C004FF4807202614FF480624261202282615D
:10021C00C36100F0E9FC18B9054B23625C62C8E7C6
:10022C0000F071F8F8E700BF00240140000801401D
:10023C00880400200800024000B583B00A4B5A69BC
:10024C0042F001025A615B6903F001030193019BC7
:10025C00002211460B2000F06DFC0B2000F0A2FCDC
:10026C0003B05DF804FB00BF0010024070B588B00D
:10027C00002404940594069407941F4B9A6942F049
:10028C0020029A619A6902F020020192019A9A69FD
:10029C0042F004029A619A6902F004020292029AF4
:1002AC009A6942F008029A619B6903F00803039370
:1002BC00039B124D22460121284600F0EDFE01233E
:1002CC000493059306940226079604A9284600F089
:1002DC00D1FD04960A4B0593069604A9284600F016
:1002EC00C9FD22460321072000F024FC072000F062
:1002FC0059FC08B070BD00BF00100240000C01405A
:10030C0000001110704772B6FEE700B595B02822B8
:10031C0000210DEB020001F0DFFF00230593069393
:10032C000793089309930193029303930493012277
:10033C000A924FF480330B930E9202221192129375
:10034C004FF4E01313930AA800F0D0FEC8B90F23A2
:10035C00059302210691002307934FF480620892C3
:10036C00099305A801F002F968B9022301934FF42F
:10037C000043039301A801F0D5F930B915B05DF82D
:10038C0004FBFFF7C0FFFFF7BEFFFFF7BCFF000049
:10039C0038B500F033FAFFF7B8FFFFF767FFFFF748
:1003AC004BFF00F08DF8FFF7CBFE00F0EBF800F000
:1003BC0003F9114D642306222946104801F03FFD34
:1003CC000F4C642306222946204601F038FD0122F9
:1003DC000C49204601F03FFF0B4C204601F0CEFFAC
:1003EC00642382B22146064801F029FD4FF47A704D
:1003FC0000F028FAF0E700BFDC24000858050020C4
:10040C0014050020A0060020A005002082B00E4B91
:10041C009A6942F001029A619A6902F00102009213
:10042C00009ADA6942F08052DA61DB6903F080539A
:10043C000193019B054A536823F0E06343F000737A
:10044C00536002B0704700BF001002400000014032
:10045C00FEE7FEE7FEE7FEE7FEE7704770477047F2
:10046C0008B500F0DDF908BD08B5022000F01AFE51
:10047C0008BD000008B5024800F05AFC08BD00BFDA
:10048C008804002008B5024801F00AFA08BD00BF34
:10049C00CC04002008B5024801F002FA08BD00BFE8
:1004AC00CC04002010B5044C204601F0B7FD2046CA
:1004BC0000F02EF910BD00BF14050020704700009D
:1004CC0000B587B000230293039304930593009324
:1004DC0001931648164A026041F61F42426083603F
:1004EC0041F28832C26003614361836101F0D0FA4A
:1004FC0090B94FF48053029302A90C4801F000FB11
:10050C0068B90023009301936946084801F066FB23
:10051C0040B907B05DF804FBFFF7F5FEE9E7FFF71C
:10052C00F2FEEEE7FFF7EFFEF3E700BFCC0400208E
:10053C00002C01400268124B9A4200D0704700B563
:10054C0083B003F564439A6942F400629A619B6933
:10055C0003F400630193019B00220321192000F096
:10056C00E9FA192000F01EFB002203211A2000F0EA
:10057C00E1FA1A2000F016FB03B05DF804FB00BF93
:10058C00002C014008B50A480A4B03604FF416537F
:10059C00436000238360C36003610C22426183616A
:1005AC00C36101F01DFC00B908BDFFF7ACFEFBE711
:1005BC00140500200038014008B50A480A4B0360B6
:1005CC004FF4E133436000238360C36003610C226A
:1005DC0042618361C36101F003FC00B908BDFFF700
:1005EC0092FEFBE7580500200044004030B589B06E
:1005FC00002304930593069307930368304A9342B0
:10060C0004D0304A934233D009B030BD2E4B9A6996
:10061C0042F480429A619A6902F480420092009AF4
:10062C009A6942F004029A619B6903F004030193F6
:10063C00019B4FF400730493022305930323079348
:10064C00224D04A9284600F015FC4FF48063049356
:10065C0000240594069404A9284600F00BFC2246BD
:10066C002146252000F066FA252000F09BFACBE706
:10067C00154BDA6942F40032DA61DA6902F40032BD
:10068C000292029A9A6942F004029A619B6903F001
:10069C0004030393039B0423049302230593032372
:1006AC0007930A4C04A9204600F0E4FB08230493AA
:1006BC0000230593069304A9204600F0DBFBA3E777
:1006CC000038014000440040001002400008014086
:1006DC0002680A4B9A4200D07047094B01221A70EB
:1006EC00084A1378591C1170074A1178074AD154DB
:1006FC000268D36843F01003D360EDE70038014083
:10070C00B90600209C050020A0060020A0050020B2
:10071C000368114A934200D07047DA6812F0100F48
:10072C00FAD000B583B0002201921A6801925A687F
:10073C000192019ADA6822F01002DA60074B1B78FA
:10074C0013B903B05DF804FB044B00221A700122AC
:10075C00034901F080FDF4E700380140B9060020A0
:10076C00A00600200C480D490D4A002302E0D45885
:10077C00C4500433C4188C42F9D30A4A0A4C0023DF
:10078C0001E013600432A242FBD3FFF797FE01F0A5
:10079C007FFDFFF7FDFD7047000000203C040020AA
:1007AC00202500083C040020C4060020FEE70000C1
:1007BC0010B504460E4B18784FF47A73B3FBF0F374
:1007CC000C4A1068B0FBF3F000F0FAF968B90F2C82
:1007DC0001D901200AE0002221464FF0FF3000F041
:1007EC00A9F9054B1C60002000E0012010BD00BFE2
:1007FC0004000020000000200800002008B5074A73
:10080C00136843F010031360032000F081F90F20EC
:10081C00FFF7CEFFFFF7FAFD002008BD00200240D5
:10082C00034A1168034B1B780B441360704700BFDD
:10083C00BC06002004000020014B1868704700BF64
:10084C00BC06002038B50446FFF7F6FF0546B4F1A8
:10085C00FF3F02D0044B1B781C44FFF7EDFF401BFD
:10086C00A042FAD338BD00BF0400002030B482B0DF
:10087C000022019290F82420012A00F09180034676
:10088C00012280F824204A68062A2DD80468606B5F
:10089C0002EB8202053A4FF01F0C0CFA02FC20EA24
:1008AC000C000D6805FA02F2024362630A68092A19
:1008BC003AD91C68E06802EB42021E3A4FF0070C72
:1008CC000CFA02FC20EA0C008D6805FA02F20243D5
:1008DC00E2600A68103A012A36D90020002283F817
:1008EC00242002B030BC70470C2A0ED80568286B47
:1008FC0002EB8202233A1F24944020EA04000C6885
:10090C0004FA02F202432A63D0E70568E86A02EBB4
:10091C008202413A1F24944020EA04000C6804FA35
:10092C0002F20243EA62C1E71C68206902EB420250
:10093C004FF0070C0CFA02FC20EA0C008D6805FA4B
:10094C0002F202432261C4E71A681648824205D0BB
:10095C009A6A42F020029A620120BFE7906810F474
:10096C00000F1BD1906840F4000090600A68102AB8
:10097C0001D00020B2E70C4A12680C49A1FB02120C
:10098C00920C02EB82025200019202E0019A013AAF
:10099C000192019A002AF9D100209FE700209DE7DF
:1009AC0002209EE7002401400000002083DE1B4350
:1009BC0038B503689A6812F0010F01D1002038BDD8
:1009CC0004469A6822F001029A60FFF735FF05464B
:1009DC0023689B6813F0010F13D0FFF72DFF431B07
:1009EC00022BF5D923689B6813F0010FF0D0A36A92
:1009FC0043F01003A362E36A43F00103E3620120B6
:100A0C00DDE70020DBE7000000287BD070B5044652
:100A1C00836A002B4DD02046FFF7CAFFA36A13F060
:100A2C00100369D1002867D1A26A22F4885222F0FF
:100A3C00020242F00202A2626268E1690A43217B6F
:100A4C0042EA4102A568B5F5807F02D0012D36D06F
:100A5C001D46267D012E35D02668716821F469412A
:100A6C00294371602568AE68274931401143A9605C
:100A7C00A168B1F5807F01D0012902D12369013B26
:100A8C001B052568E96A21F470010B43EB622368AE
:100A9C0099681E4B0B409A4225D0A36A23F012038F
:100AAC0043F01003A362E36A43F00103E362012005
:100ABC0027E0C36280F82430FFF770FBABE74FF4FC
:100ACC008075C6E731B9A169013945EA413141F474
:100ADC000065C1E7A16A41F02001A162E16A41F021
:100AEC000101E162B8E70023E362A36A23F0030388
:100AFC0043F00103A36204E0A36A43F01003A36272
:100B0C00012070BD01207047FDF7E1FFFE0E1FFFB5
:100B1C00074AD36823F4E0631B041B0C000200F4A7
:100B2C00E060034343F0BF6343F40033D36070478A
:100B3C0000ED00E000B5194BDB68C3F30223C3F1F1
:100B4C00070CBCF1040F28BF4FF0040C03F1040E8A
:100B5C00BEF1060F18D9033B4FF0FF3E0EFA0CFC0A
:100B6C0021EA0C0199400EFA03F322EA030319431C
:100B7C0000280BDB0901C9B200F1604000F56140AF
:100B8C0080F800135DF804FB0023E5E700F00F008C
:100B9C000901C9B2024B1954F4E700BF00ED00E0A3
:100BAC0014ED00E0002807DB00F01F0240090123D0
:100BBC009340024A42F82030704700BF00E100E049
:100BCC000138B0F1807F0BD24FF0E0235861054A19
:100BDC00F02182F823100020986107221A617047D7
:100BEC000120704700ED00E060B310B402460168CC
:100BFC00154B0B441548A0FB03031B099B00136406
:100C0C00134BD363022382F82130086820F47F5001
:100C1C0020F03000536894682343D468234314694C
:100C2C0023435469234394692343D46923430343E3
:100C3C000B6000209063012382F8213082F82000A1
:100C4C0010BC704701207047F8FFFDBFCDCCCCCC59
:100C5C000000024090F82130022B06D0042383635D
:100C6C00002380F82030012070470268136823F0BD
:100C7C000E0313600268136823F001031360036C06
:100C8C00C16B012202FA03F34B6080F82120002390
:100C9C0080F820301846704708B590F82130022BA8
:100CAC0003D004238363012008BD0268136823F07A
:100CBC000E0313600268136823F0010313600368CA
:100CCC00194A934214D0143293421FD014329342D7
:100CDC001ED0143293421ED0143293421ED01432C2
:100CEC00934202D04FF0807203E04FF4801200E088
:100CFC0001220E4B5A60012380F82130002380F82A
:100D0C002030436B6BB198470020CDE71022F0E701
:100D1C004FF48072EDE74FF48052EAE74FF48032E3
:100D2C00E7E70020C0E700BF0800024000000240D7
:100D3C0038B5C36B1A6804682568016C04238B40B2
:100D4C00134235D015F0040F32D0236813F0200F66
:100D5C0003D1236823F0040323600368434A9342BE
:100D6C0014D01432934218D01432934217D0143248
:100D7C00934217D01432934217D01432934202D0BC
:100D8C004FF0806203E04FF4800200E00422384B05
:100D9C005A60C36A03B1984738BD4022F7E74FF455
:100DAC008062F4E74FF48042F1E74FF48022EEE7E3
:100DBC0002238B4013423CD015F0020F39D023682C
:100DCC0013F0200F06D1236823F00A0323600123BC
:100DDC0080F821300368254A934214D01432934290
:100DEC001CD0143293421BD0143293421BD01432B9
:100DFC0093421BD01432934202D04FF0007203E0A6
:100E0C004FF4001200E00222194B5A60002380F8C4
:100E1C002030836A002BBFD09847BDE72022F3E730
:100E2C004FF40072F0E74FF40052EDE74FF400324C
:100E3C00EAE7082303FA01F11142ADD015F0080FCF
:100E4C00AAD0236823F00E032360026CC16B01232C
:100E5C0003FA02F24A60836380F82130002380F8A1
:100E6C002030036B002B97D0984795E70800024081
:100E7C000000024070B582B00024A446A6E0804D6C
:100E8C00AA4210D007D97F4DAA420CD005F5803567
:100E9C00AA4208D013E0A5F58015AA4203D005F5A7
:100EAC007025AA4207D18A68002A58D0012A51D04D
:100EBC004361082403E0A5F58015AA42F3D0BEF1E6
:100ECC00FF0F4ED80646BEF1FF0F4CD84FEA8C02EE
:100EDC0033680F25954023EA050304FA02F2134305
:100EEC0033604B6813F0805F6ED0674B9A6942F0A9
:100EFC0001029A619B6903F001030193019B4FEA84
:100F0C009C02951C614B53F825600CF003039D006B
:100F1C000F23AB4026EA03065D4B984229D003F51C
:100F2C008063984200F08E8003F58063984200F055
:100F3C008B8003F58063984219D004231AE0CC68A7
:100F4C00BDE7CC680434BAE7CC680834B7E7CC68A2
:100F5C000C34B4E703610824B1E70024AFE70424A0
:100F6C00ADE7061DAFE7ACF108029200B0E7032332
:100F7C0000E00023AB4033430232444D45F82230AD
:100F8C004B6813F4803F61D0424A136843EA0E0366
:100F9C0013604B6813F4003F5ED03E4A536843EA3B
:100FAC000E0353604B6813F4801F5BD0394A93686F
:100FBC0043EA0E0393604B6813F4001F58D0354A74
:100FCC00D36843EA0E03D3600CF1010C0A6832FAC1
:100FDC000CF353D0012303FA0CF302EA030E33EAA9
:100FEC000202F1D14A68122A3FF649AF122A3FF6A3
:100FFC0066AF01A555F822F0B30E00084B0F0008A0
:10100C00550F0008670F0008CB0E0008CB0E000828
:10101C00CB0E0008CB0E0008CB0E0008CB0E000840
:10102C00CB0E0008CB0E0008CB0E0008CB0E000830
:10103C00CB0E0008CB0E0008CB0E00084F0F00089B
:10104C005B0F0008012395E7022393E7114A13680D
:10105C0023EA0E0313609CE70E4A536823EA0E033F
:10106C0053609FE70B4A936823EA0E039360A2E751
:10107C00084AD36823EA0E03D360A5E702B070BD1B
:10108C00000022100000311000100240000001404E
:10109C0000080140000401400AB1016170470904D5
:1010AC000161704708B5054B5B69034200D108BD6F
:1010BC00024B5861FFF726F9F9E700BF0004014025
:1010CC0082B0084B1B68084AA2FB03235B0A00FB97
:1010DC0003F3019300BF019B5A1E0192002BF9D11F
:1010EC0002B0704700000020D34D6210002800F0C1
:1010FC00F18170B582B00446036813F0010F2CD057
:10110C00994B5B6803F00C03042B1DD0964B5B686A
:10111C0003F00C03082B12D06368B3F5803F41D069
:10112C00002B55D103F1804303F504331A6822F4E4
:10113C0080321A601A6822F480221A6037E08A4BD7
:10114C005B6813F4803FE7D0874B1B6813F4003FB8
:10115C0003D06368002B00F0BF81236813F0020FEB
:10116C0075D0814B5B6813F00C0F5FD07E4B5B68C6
:10117C0003F00C03082B54D02369002B00F08A8059
:10118C007A4B01221A60FFF757FB0546764B1B681A
:10119C0013F0020F75D1FFF74FFB401B0228F5D956
:1011AC0003209EE1704A136843F480331360636834
:1011BC0043B3FFF741FB05466B4B1B6813F4003F31
:1011CC00CBD1FFF739FB401B6428F5D9032088E10C
:1011DC00B3F5A02F09D0644B1A6822F480321A6040
:1011EC001A6822F480221A60E1E703F18043A3F528
:1011FC003C331A6842F480221A601A6842F4803236
:10120C001A60D4E7FFF718FB0546574B1B6813F41D
:10121C00003FA2D0FFF710FB401B6428F5D9032038
:10122C005FE1514B5B6813F4803FA5D14E4B1B68BB
:10123C0013F0020F03D02369012B40F04F814A4A6F
:10124C00136823F0F803616943EAC1031360236850
:10125C0013F0080F33D0A369002B5CD0434B012251
:10126C00C3F88024FFF7E8FA05463F4B5B6A13F09E
:10127C00020F21D1FFF7E0FA401B0228F5D9032019
:10128C002FE1394A136823F0F803616943EAC1037B
:10129C001360DCE7354B00221A60FFF7CDFA0546E8
:1012AC00314B1B6813F0020FD1D0FFF7C5FA401B6E
:1012BC000228F5D9032014E10120FFF701FF236870
:1012CC0013F0040F00F09680274BDB6913F0805F5E
:1012DC0034D1254BDA6942F08052DA61DB6903F0D4
:1012EC0080530193019B0125214B1B6813F4807FD4
:1012FC0026D0E368012B3DD0002B53D103F1804362
:10130C0003F504331A6A22F001021A621A6A22F0F7
:10131C0004021A6233E0154B0022C3F88024FFF755
:10132C008BFA0546104B5B6A13F0020FC7D0FFF720
:10133C0083FA401B0228F5D90320D2E00025D3E71D
:10134C000B4A136843F480731360FFF775FA064673
:10135C00074B1B6813F4807FCBD1FFF76DFA801B12
:10136C006428F5D90320BCE0001002400000424282
:10137C00007000405F4A136A43F001031362E36894
:10138C0033B3FFF759FA06465A4B1B6A13F0020F98
:10139C002FD1FFF751FA801B41F288339842F3D9D1
:1013AC0003209EE0052B09D0524B1A6A22F0010251
:1013BC001A621A6A22F004021A62E0E74D4B1A6AAA
:1013CC0042F004021A621A6A42F001021A62D6E76B
:1013DC00FFF732FA0646474B1B6A13F0020F08D090
:1013EC00FFF72AFA801B41F288339842F3D9032085
:1013FC0077E0E5B9E369002B72D03E4A526802F0FF
:10140C000C02082A56D0022B17D03B4B00221A662E
:10141C00FFF712FA0446374B1B6813F0007F47D0D6
:10142C00FFF70AFA001B0228F5D9032059E0314ACC
:10143C00D36923F08053D361DCE72F4B00221A666B
:10144C00FFF7FAF905462B4B1B6813F0007F06D00B
:10145C00FFF7F2F9401B0228F5D9032041E0236A7B
:10146C00B3F5803F1AD023494B6823F47413226AD6
:10147C00606A024313434B601F4B01221A66FFF74D
:10148C00DBF904461B4B1B6813F0007F0ED1FFF7F2
:10149C00D3F9001B0228F5D9032022E0154A536822
:1014AC0023F40033A1680B435360DCE7002018E001
:1014BC00002016E0012B16D00E4B5B6803F4803134
:1014CC00226A914211D103F47013626A93420ED1D5
:1014DC00002006E001207047012002E0012000E01E
:1014EC00002002B070BD0120FBE70120F9E70120CC
:1014FC00F7E700BF001002400000424286B0174BD5
:10150C000FCB0DF1180C0CE90F0040F20123ADF8D4
:10151C000430134B5B6803F00C02082A02D011480C
:10152C0006B07047C3F3834218326A4412F8100CA9
:10153C0013F4803F0DD00A4B5B68C3F34043183360
:10154C006B4413F8143C074A02FB00F0B0FBF3F0B9
:10155C00E6E7054B03FB00F0E2E700BFFC240008C4
:10156C000010024000127A0000093D00002800F033
:10157C00A08070B50D460446524B1B6803F0070360
:10158C008B420BD24F4A136823F007030B431360B3
:10159C00136803F007038B4240F08D80236813F02F
:1015AC00020F17D013F0040F04D0474A536843F4CA
:1015BC00E0635360236813F0080F04D0424A536869
:1015CC0043F460535360404A536823F0F003A1681E
:1015DC000B435360236813F0010F31D06368012B68
:1015EC0020D0022B25D0384A126812F0020F64D09A
:1015FC0035494A6822F0030213434B60FFF71CF98C
:10160C000646314B5B6803F00C036268B3EB820F48
:10161C0016D0FFF711F9801B41F288339842F0D9AC
:10162C00032045E0284A126812F4003FE0D1012063
:10163C003EE0254A126812F0007FD9D1012037E034
:10164C00204B1B6803F00703AB420AD91D4A1368F1
:10165C0023F007032B431360136803F00703AB421B
:10166C002DD1236813F0040F06D0174A536823F4C6
:10167C00E063E1680B435360236813F0080F07D055
:10168C00114A536823F46053216943EAC103536040
:10169C00FFF734FF0C4B5B68C3F303130B4AD35CAB
:1016AC00D8400B4B18600B4B1868FFF781F80020E3
:1016BC0070BD012070470120FAE70120F8E70120F6
:1016CC00F6E700BF0020024000100240E4240008AE
:1016DC000000002008000020014B1868704700BF74
:1016EC000000002008B5FFF7F7FF044B5B68C3F35D
:1016FC000223034AD35CD84008BD00BF001002404F
:10170C00F424000808B5FFF7E7FF044B5B68C3F34C
:10171C00C223034AD35CD84008BD00BF001002406E
:10172C00F424000870B582B00446036813F0010F6E
:10173C0036D03F4BDB6913F0805F49D13C4BDA6903
:10174C0042F08052DA61DB6903F080530193019B14
:10175C000125384B1B6813F4807F3BD0344B1B6A3C
:10176C0013F4407313D0626802F440729A420ED0A4
:10177C002F4A136A23F440702F490126C1F84064A4
:10178C000026C1F84064106213F0010F36D1284ACC
:10179C00136A23F4407361680B431362002D3ED12E
:1017AC00236813F0020F06D0214A536823F44043F8
:1017BC00A1680B435360236813F0100F34D01C4AFC
:1017CC00536823F48003E1680B43536000202CE042
:1017DC000025BEE7174A136843F480731360FFF7C4
:1017EC002BF80646134B1B6813F4807FB6D1FFF71A
:1017FC0023F8801B6428F5D9032016E0FFF71CF8AA
:10180C0006460B4B1B6A13F0020FC0D1FFF714F8FE
:10181C00801B41F288339842F3D9032005E0D36949
:10182C0023F08053D361BBE7002002B070BD00BF32
:10183C0000100240007000400000424210B4036AE5
:10184C00046A24F001040462846924F0F00C4CEA6C
:10185C00021223F00A030B438261036210BC70472F
:10186C0010B4046A24F0100404628469036A24F43A
:10187C00704C4CEA023223F0A00343EA011382615C
:10188C00036210BC7047836823F070030B4343F072
:10189C000703836070477047704770477047704705
:1018AC0010B5044603681A6912F0020F11D0DA68F9
:1018BC0012F0020F0DD06FF002021A6101230377B0
:1018CC0003689B6913F0030F70D0FFF7E6FF00234A
:1018DC00237723681A6912F0040F12D0DA6812F019
:1018EC00040F0ED06FF004021A61022323772368D1
:1018FC009B6913F4407F5FD02046FFF7CEFF002397
:10190C00237723681A6912F0080F12D0DA6812F0E4
:10191C00080F0ED06FF008021A6104232377236896
:10192C00DB6913F0030F4ED02046FFF7B6FF002300
:10193C00237723681A6912F0100F12D0DA6812F0AC
:10194C00100F0ED06FF010021A6108232377236852
:10195C00DB6913F4407F3DD02046FFF79EFF002348
:10196C00237723681A6912F0010F03D0DA6812F09A
:10197C00010F36D123681A6912F0800F03D0DA6890
:10198C0012F0800F34D123681A6912F0400F03D083
:10199C00DA6812F0400F32D123681A6912F0200F66
:1019AC0003D0DA6812F0200F30D110BDFFF774FFAE
:1019BC002046FFF773FF8AE72046FFF76DFF2046AE
:1019CC00FFF76CFF9BE72046FFF766FF2046FFF70B
:1019DC0065FFACE72046FFF75FFF2046FFF75EFF91
:1019EC00BDE76FF001021A612046FFF754FFC1E713
:1019FC006FF080021A61204600F027F9C3E76FF000
:101A0C0040021A612046FFF74AFFC5E76FF020023B
:101A1C001A61204600F018F9C7E7000003681B4A5A
:101A2C0090420AD0B0F1804F07D0A2F59432904288
:101A3C0003D002F58062904203D123F070034A6810
:101A4C001343124A90420AD0B0F1804F07D0A2F54E
:101A5C009432904203D002F58062904203D123F479
:101A6C004073CA68134323F080034A69134303602D
:101A7C008B68C3620B688362044B984202D00123CB
:101A8C00436170470B690363F9E700BF002C014009
:101A9C0040B310B5044690F83D30F3B1022384F8FE
:101AAC003D30214651F8040BFFF7B8FF012384F8B1
:101ABC00463084F83E3084F83F3084F8403084F867
:101ACC00413084F8423084F8433084F8443084F850
:101ADC00453084F83D30002010BD80F83C30FEF7D6
:101AEC0029FDDBE70120704710B4846824F47F4C97
:101AFC0042EA03220A4342EA0C02826010BC70479D
:101B0C0090F83C30012B66D010B50446012380F8C8
:101B1C003C30022380F83D300268936823F47F4305
:101B2C0023F0770393600B68602B40D022D8402BB6
:101B3C0047D00BD9502B0ED1CA6849680068FFF703
:101B4C007DFE50212068FFF79EFE04E0202B0CD078
:101B5C0008D9302B09D0012384F83D30002084F8BB
:101B6C003C0010BD0BB1102BF5D119462068FFF7C6
:101B7C008AFEF0E7702B0ED0B3F5005FEBD1CB688B
:101B8C004A6889680068FFF7AFFF2268936843F4DE
:101B9C0080439360DFE7CB684A6889680068FFF789
:101BAC00A3FF2268936843F077039360D3E7CA6876
:101BBC0049680068FFF754FE60212068FFF763FE58
:101BCC00C9E7CA6849680068FFF738FE40212068F9
:101BDC00FFF759FEBFE702207047000090F83C3039
:101BEC00012B2CD010B4012380F83C30022380F858
:101BFC003D3003685A689C6822F0700C0A6842EA0F
:101C0C000C025A6003680F4A93420AD0B3F1804F1A
:101C1C0007D0A2F59432934203D002F5806293422E
:101C2C0004D124F080044A6814439C60012380F89A
:101C3C003D30002380F83C30184610BC7047022021
:101C4C00704700BF002C0140704770470268D36892
:101C5C0023F49073D3600268536923F0010353613A
:101C6C00036B012B05D0202380F83E300023036347
:101C7C0070470268D36823F01003D360F3E790F841
:101C8C003D30DBB2212B01D0022070478368B3F5C5
:101C9C00805F17D0036A5A1C02621A7803685A6074
:101CAC00C38C9BB2013B9BB2C3844BB90268D36813
:101CBC0023F08003D3600268D36843F04003D36001
:101CCC00002070470369002BE4D1036A1B8802686B
:101CDC00C3F308035360036A02330362E0E70000B6
:101CEC0010B504460268136923F44053C1680B43D2
:101CFC00136183680269134342691A430168CB6814
:101D0C0023F4B05323F00C031343CB6002685369E4
:101D1C0023F4407381690B4353610268134B9A425D
:101D2C0020D0FFF7DFFC024602EB820202EB8202BC
:101D3C0063689B00B2FBF3F20D48A0FB023149092A
:101D4C00642303FB11231B013233A0FB03235B0928
:101D5C0003F0F00202EB011203F00F0321681344AD
:101D6C008B6010BDFFF7CEFC0246DDE7003801406A
:101D7C001F85EB512DE9F84305460F46164699464B
:101D8C00DDF820802C68246837EA04030CBF4FF080
:101D9C00010C4FF0000CB4451FD1B8F1FF3FF1D04E
:101DAC00B8F1000F05D0FEF747FDA0EB0900404548
:101DBC00E8D92A68D36823F4D073D3602A685369AE
:101DCC0023F001035361202385F83D3085F83E3024
:101DDC00002385F83C30032000E00020BDE8F883A8
:101DEC0058B310B5044690F83D300BB3242384F857
:101DFC003D302268D36823F40053D3602046FFF7AC
:101E0C006FFF2268136923F49043136122685369AE
:101E1C0023F02A0353612268D36843F40053D36040
:101E2C0000202064202384F83D3084F83E3010BD1F
:101E3C0080F83C30FEF7DAFBD8E7012070472DE93B
:101E4C00F04182B01E4690F83D30DBB2202B54D1CD
:101E5C0004460D469046002953D0002A53D090F8E2
:101E6C003C30012B51D0012380F83C30002303641B
:101E7C00212380F83D30FEF7DFFC0746A4F82480D0
:101E8C00A4F82680A368B3F5805F05D04FF0000856
:101E9C00002384F83C3012E0236913B14FF00008A2
:101EAC00F6E7A8460025F3E738F8023B2268C3F3AF
:101EBC0008035360E28C92B2013A92B2E284E38C52
:101ECC009BB273B100963B46002280212046FFF75F
:101EDC0051FFE0B9002DE7D015F8012B23685A60AB
:101EEC00E8E700963B46002240212046FFF742FFE0
:101EFC0078B9202384F83D3000E0022002B0BDE820
:101F0C00F0810120FAE70120F8E70220F6E7032030
:101F1C00F4E70320F2E7704708B50168CA6822F0BD
:101F2C004002CA60202280F83D20FFF7F4FF002019
:101F3C0008BD704708B5406A0023C385C384FFF70A
:101F4C00F8FF08BD704790F83E30DBB2222B60D111
:101F5C008368B3F5805F46D0826AB3F5805F04D0A6
:101F6C00002B4DD10369002B4AD103685B681370B9
:101F7C00836A01338362C38D9BB2013B9BB2C385E1
:101F8C00002B48D100B583B00268D36823F020033E
:101F9C00D3600268D36823F48073D36002685369FA
:101FAC0023F001035361202380F83E30036B012B97
:101FBC002CD1002303630268D36823F01003D36091
:101FCC0003681A6812F0100F06D0002201921A68EA
:101FDC0001925B680193019B818DFFF7B3FF002099
:101FEC0003B05DF804FB0269002AB5D1826A03686C
:101FFC005B68C3F308031380836A02338362BAE716
:10200C0003685B6803F07F031370B1E7FEF760FBB6
:10201C00E5E70220704700207047000030B583B020
:10202C00044602681368D068516913F00F0505D196
:10203C0013F0200F02D010F0200F19D12DB111F098
:10204C00010119D110F4907F16D1216B012975D0A3
:10205C0013F0800F03D010F0800F40F0D78013F0F6
:10206C00400F03D010F0400F40F0D48003B030BDCF
:10207C002046FFF768FFF9E713F0010F06D010F4C4
:10208C00807F03D0226C42F00102226413F0040F13
:10209C0004D019B1226C42F00202226413F0020F38
:1020AC0004D019B1226C42F00402226413F0080F20
:1020BC0007D010F0200F00D119B1226C42F00802A9
:1020CC002264226C002AD1D013F0200F02D010F021
:1020DC00200F21D123685B6903F04003226C12F0BE
:1020EC00080F00D123B32046FFF7B0FD23685A69CF
:1020FC0012F0400F18D05A6922F040025A61A36BBB
:10210C0073B1464A5A63A06BFEF7C6FD0028ADD0EA
:10211C00A06B436B9847A9E72046FFF714FFD9E75C
:10212C002046FFF706FFA1E72046FFF702FF9DE7D9
:10213C002046FFF7FEFE0023236497E713F0100FF1
:10214C0086D010F0100F83D00023019313680193F5
:10215C0053680193019B536913F0400F32D0A16B6C
:10216C000B685B689BB2002B80D0A08D98427FF6E9
:10217C007DAFE3858B69202B08D1A18DE38D9BB2BC
:10218C00C91A89B22046FFF7DDFE6FE7D36823F446
:10219C008073D3602268536923F001035361226872
:1021AC00536923F040035361202384F83E3000230D
:1021BC0023632268D36823F01003D360A06BFEF76F
:1021CC0049FDDAE7A18DE38D9BB2C91A89B2E38D83
:1021DC009BB2002B3FF44AAF00293FF447AFD368C2
:1021EC0023F49073D3602268536923F00103536185
:1021FC00202384F83E30002323632268D36823F025
:10220C001003D3602046FFF79DFE2FE72046FFF713
:10221C0036FD2BE72046FFF77FFE27E7411F00081E
:10222C00034681628285C28500201864222283F8CD
:10223C003E2083F83C001968CA6842F48072CA6078
:10224C0019684A6942F001024A611A68D36843F07E
:10225C002003D360704708B590F83E30DBB2202BDA
:10226C000DD171B17AB190F83C30012B0DD0012316
:10227C0080F83C3000230363FFF7D2FF00E002201C
:10228C0008BD0120FCE70120FAE70220F8E7000076
:10229C0070B50D4E0D4D761BB61006D0002455F8BA
:1022AC00043B01349847A642F9D1094E094D00F080
:1022BC0003F9761BB61006D0002455F8043B013404
:1022CC009847A642F9D170BD1425000814250008C2
:1022DC001C25000814250008830730B548D0541E6F
:1022EC00002A3FD00346CAB201E0013C3AD303F8BE
:1022FC00012B9D07F9D1032C2DD9CDB245EA05252B
:10230C000F2C45EA054536D9A4F1100222F00F0C2A
:10231C0003F1200EE6444FEA121C03F1100242E9CD
:10232C00045542E9025510327245F8D10CF1010204
:10233C0014F00C0F03EB021204F00F0C13D0ACF1E1
:10234C00040323F003030433134442F8045B934265
:10235C00FBD10CF003042CB1CAB21C4403F8012BC2
:10236C009C42FBD130BD64461346002CF4D1F9E7F6
:10237C0003461446BFE71A46A446E0E720F00301E3
:10238C0010F00300C0F1000051F8043B00F1040C04
:10239C004FEACC0C6FF000021CBF22FA0CF2134374
:1023AC004FF0010C4CEA0C2C4CEA0C4CA3EB0C023D
:1023BC0022EA030212EACC1204BF51F8043B0430A7
:1023CC00F4D0C2F1000102EA0102B2FA82F2C2F1C7
:1023DC001F0200EBD2007047024B13B1024800F011
:1023EC0005B87047000000000524000800230146D2
:1023FC001A46184600F01AB838B5084B084D5B1B46
:10240C009C1007D0043B1D44013C55F804399847F7
:10241C00002CF9D1BDE8384000F054B82025000854
:10242C001C250008704700BF704700BF2DE9F0471E
:10243C00DFF87CA00646DAF8000098460F46914675
:10244C00FFF7F0FF1B4B1B68D3F8484124B36568BA
:10245C001F2D26DC5EB96B1C0235DAF800006360B8
:10246C0044F82570FFF7E0FF0020BDE8F08701235A
:10247C0004EB8501C1F88890D4F88821AB401A434D
:10248C00022EC4F88821C1F80881E4D1D4F88C213B
:10249C001343C4F88C31DEE703F5A674C3F8484146
:1024AC00D5E7DAF80000FFF7BFFF4FF0FF30DCE7AD
:1024BC003804002010250008F8B500BFF8BC08BC93
:1024CC009E467047F8B500BFF8BC08BC9E467047E6
:1024DC0068656C6C6F0A00000000000000000000D2
:1024EC0001020304060708090000000001020304AE
:1024FC0002030405060708090A0B0C0D0E0F101039
:08250C00000000001000002097
:08251400E52300083101000875
:04251C000D010008A5
:102520000024F40001000000100000000000000082
:1025300000000000FC02002064030020CC03002007
:10254000000000000000000000000000000000008B
:10255000000000000000000000000000000000007B
:10256000000000000000000000000000000000006B
:10257000000000000000000000000000000000005B
:10258000000000000000000000000000000000004B
:10259000000000000000000000000000000000003B
:1025A000000000000000000000000000000000002B
:1025B000000000000000000000000000000000001B
:1025C000000000000000000000000000000000000B
:1025D00000000000000000000100000000000000FA
:1025E0000E33CDAB34126DE6ECDE05000B000000BF
:1025F00000000000000000000000000000000000DB
:1026000000000000000000000000000000000000CA
:1026100000000000000000000000000000000000BA
:1026200000000000000000000000000000000000AA
:0C2950000000000000000000C006002095
:040000050800077177
:00000001FF
